:100000000C9462000C948A000C948A000C948A0070
:100010000C948A000C948A000C948A000C948A0038
:100020000C948A000C948A000C948A000C948A0028
:100030000C948A000C948A000C948A000C948A0018
:100040000C9452030C948A000C94C2030C949C03ED
:100050000C948A000C948A000C948A000C948A00F8
:100060000C948A000C948A000000000025002800EF
:100070002B0000000000240027002A0000000000E0
:1000800023002600290004040404040404040202DA
:100090000202020203030303030301020408102007
:1000A0004080010204081020010204081020000012
:1000B0000008000201000003040700000000000027
:1000C0000000160611241FBECFEFD8E0DEBFCDBF63
:1000D00022E0ACE6B1E001C01D92A337B207E1F720
:1000E00011E0A0E0B1E0E6E5F1E102C005900D927B
:1000F000AC36B107D9F710E0C2E6D0E004C02197D2
:10010000FE010E94A806C136D107C9F70E94F40378
:100110000C94A9080C94000090E0FC01E255FF4FFC
:100120002491FC01E656FF4F3491FC01EA57FF4F42
:10013000E491EE23C1F1222339F02330E9F090F469
:10014000213001F1223011F1F0E0EE0FFF1FE458F1
:10015000FF4FA591B491EC91E32381E090E029F564
:1001600080E008952730A9F02830C9F0243061F7E5
:10017000809180008F7D03C0809180008F77809375
:100180008000E2CF84B58F7784BDDECF84B58F7DCC
:10019000FBCF8091B0008F778093B000D5CF809156
:1001A000B0008F7DF9CF80E090E008952FB7F894EC
:1001B0006091CE017091CF018091D0019091D101D9
:1001C0002FBF0895AF92BF92CF92DF92EF92FF922E
:1001D0000F931F93CF93DF936C017B018B01040F6F
:1001E000151FEB015E01AE18BF08C017D10759F00B
:1001F0006991D601ED91FC910190F081E02DC6014D
:100200000995892B79F7C501DF91CF911F910F9146
:10021000FF90EF90DF90CF90BF90AF900895FC01DA
:10022000538D448D252F30E0842F90E0821B930B5B
:10023000541710F0CF96089501970895FC01918D01
:10024000828D981761F0A28DAE0FBF2FB11D5D9604
:100250008C91928D9F5F9F73928F90E008958FEFA6
:100260009FEF08950F931F930E94D6006093DA01C9
:100270007093DB018093DC019093DD0182ED91E0CE
:100280000E941E0197FF1DC00E94D6000091DA0156
:100290001091DB012091DC013091DD01601B710BBD
:1002A000820B930B0091D6011091D7012091D801B8
:1002B0003091D9016017710782079307F8F28FEF29
:1002C0009FEF1F910F910895FC01918D828D9817DA
:1002D00031F0828DE80FF11D858D90E008958FEF4C
:1002E0009FEF0895FC01918D228D892F90E0805C15
:1002F0009F4F821B91098F739927089582ED91E09A
:100300000E94720121E0892B09F420E0822F0895D8
:1003100080E090E0892B29F00E947E0181110C94ED
:1003200000000895FC01A48DA80FB92FB11DA35A98
:10033000BF4F2C91848D90E001968F739927848F05
:10034000A689B7892C93A089B1898C918370806428
:100350008C93938D848D981306C00288F389E02DC9
:1003600080818F7D80830895EF92FF920F931F937A
:10037000CF93DF93EC0181E0888F9B8D8C8D981358
:100380001AC0E889F989808185FF15C09FB7F89464
:10039000EE89FF896083E889F989808183708064B0
:1003A00080839FBF81E090E0DF91CF911F910F91FB
:1003B000FF90EF900895F62E0B8D10E00F5F1F4F0A
:1003C0000F731127E02E8C8D8E110CC00FB607FC19
:1003D000FACFE889F989808185FFF5CFCE010E94A7
:1003E0009201F1CFEB8DEC0FFD2FF11DE35AFF4F82
:1003F000F0829FB7F8940B8FEA89FB898081806235
:10040000CFCFCF93DF93EC01888D8823B9F0AA89F1
:10041000BB89E889F9898C9185FD03C0808186FDBF
:100420000DC00FB607FCF7CF8C9185FFF2CF80810E
:1004300085FFEDCFCE010E949201E9CFDF91CF91F0
:1004400008958F929F92AF92BF92EF92FF920F9377
:100450001F93CF93DF938FEF9FEF909301018093D2
:1004600000010E94D6004B015C01CAE1D1E050EBD3
:10047000E52E51E0F52E0CE611E08991282F30E0B1
:10048000F901E656FF4F9491F901EA57FF4FE491C5
:10049000EE23D1F02E2F30E0220F331FF901EE585A
:1004A000FF4FA591B491F901E859FF4F259134917F
:1004B0005FB7F8946C91492F409546234C93D9012E
:1004C000EC919E2B9C935FBF0E948C00F70181935F
:1004D0007F01D8018D929D92AD92BD928D01B1E0C8
:1004E000CB32DB0709F0C9CFDF91CF911F910F917C
:1004F000FF90EF90BF90AF909F908F900895FC0178
:1005000001900020E9F73197AF01481B590BBC015E
:1005100082ED91E00C94E2008F929F92AF92BF9295
:100520000F931F93CF93DF93CDB7DEB7A1970FB68D
:10053000F894DEBF0FBECDBF19A2423008F44AE0E6
:100540008E010F5D1F4F842E912CB12CA12CA50183
:1005500094010E948606E62FB901CA01EA30F4F43C
:10056000E05DD801EE938D01232B242B252B79F709
:1005700090E080E0109719F0CD010E947F02A196D3
:100580000FB6F894DEBF0FBECDBFDF91CF911F91A4
:100590000F91BF90AF909F908F900895E95CE1CF4D
:1005A000CF93DF930E947F02EC018BE291E00E94E7
:1005B0007F028C0F9D1FDF91CF9108950F931F93A2
:1005C000CF93DF93EC0188819981009759F02A81BC
:1005D0003B812617370730F081E0DF91CF911F91E3
:1005E0000F9108958B016F5F7F4F0E94D307009793
:1005F00059F0998388831B830A832C813D81232BA7
:1006000059F7FC011082E8CF80E0E7CFCF93DF936A
:10061000C82FD0E0809100019091010197FF16C092
:10062000D0930101C09300018EE291E00E947F020D
:10063000FE01E65EFE4F608170E090E080E04AE0FF
:100640000E948C028BE291E00E947F028091000167
:10065000909101018C179D0799F48091C5019091AB
:10066000C601A091C701B091C8010196A11DB11D9D
:100670008093C5019093C601A093C701B093C801B0
:10068000DF91CF91089583E391E00E947F024AE0D9
:1006900062E070E080E090E00E948C028BE291E0EA
:1006A0000C947F021F920F920FB60F9211242F937A
:1006B0003F938F939F93AF93BF938091CE0190917F
:1006C000CF01A091D001B091D1013091CD0123E0B3
:1006D000230F2D3758F50196A11DB11D2093CD0193
:1006E0008093CE019093CF01A093D001B093D1011C
:1006F0008091C9019091CA01A091CB01B091CC0128
:100700000196A11DB11D8093C9019093CA01A093C8
:10071000CB01B093CC01BF91AF919F918F913F914D
:100720002F910F900FBE0F901F90189526E8230F62
:100730000296A11DB11DD2CF1F920F920FB60F923C
:1007400011242F933F934F935F936F937F938F93D6
:100750009F93AF93BF93EF93FF9382ED91E00E943D
:100760009201FF91EF91BF91AF919F918F917F91F6
:100770006F915F914F913F912F910F900FBE0F900E
:100780001F9018951F920F920FB60F9211242F935E
:100790008F939F93EF93FF93E091E201F091E30138
:1007A0008081E091E801F091E90182FD1BC0908118
:1007B0008091EB018F5F8F732091EC01821741F0E4
:1007C000E091EB01F0E0EE52FE4F958F8093EB014C
:1007D000FF91EF919F918F912F910F900FBE0F90EE
:1007E0001F9018958081F4CFCF93DF93CDB7DEB7FC
:1007F00028970FB6F894DEBF0FBECDBF789484B5AE
:10080000826084BD84B5816084BD85B5826085BD0C
:1008100085B5816085BD80916E00816080936E009A
:10082000109281008091810082608093810080918C
:10083000810081608093810080918000816080933D
:1008400080008091B10084608093B1008091B000FD
:1008500081608093B00080917A00846080937A00F8
:1008600080917A00826080937A0080917A00816022
:1008700080937A0080917A00806880937A00109249
:10088000C100E091E201F091E30182E08083E09118
:10089000DE01F091DF011082E091E001F091E101D1
:1008A0008FEC80831092EA01E091E601F091E7017C
:1008B00086E08083E091E401F091E5018081806130
:1008C0008083E091E401F091E5018081886080837C
:1008D000E091E401F091E501808180688083E091FE
:1008E000E401F091E50180818F7D80830E942102E7
:1008F0000E9443030E94D6006093C1017093C2011D
:100900008093C3019093C40130E0A32E30E0B32E56
:100910000E94D6002B013C010091000110910101C1
:1009200017FD5AC0F801E65EFE4F80810E948C00E0
:10093000F82EF801E055FE4F8081F81641F1F801DC
:10094000EE0FFF1FEE0FFF1FE459FE4F80819181D4
:10095000A281B381A3019201281B390B4A0B5B0BC7
:10096000DA01C90185369105A105B10548F040823B
:10097000518262827382F11003C0802F0E940603AD
:10098000E0910001F0910101E055FE4FF08280916D
:10099000C5019091C601A091C701B091C801892BF2
:1009A0008A2B8B2B09F453C082E491E00E94D00281
:1009B0008091C5019091C601A091C701B091C80175
:1009C0000197A109B1098093C5019093C601A09335
:1009D000C701B093C801DBCF8AE1C82E81E0D82ED1
:1009E00090EBE92E91E0F92E0CE611E0912CF60146
:1009F00081916F010E948C00882EF70181917F0107
:100A00008816F1F0F80180819181A281B381A30160
:100A10009201281B390B4A0B5B0BDA01C9018536A1
:100A20009105A105B10548F040825182628273822E
:100A3000811003C0892D0E940603F701319780823F
:100A400093940C5F1F4FF1E19F12D1CFA0CF82EDA5
:100A500091E00E947201181619060CF066C01A8205
:100A600019821C821B821E821D8270E060E0CE0112
:100A700001960E94DE0229813A8181112EC0211542
:100A8000310519F0C9010E944A071A8219821E8293
:100A90001D821C821B820E9432010D811E8197FDE6
:100AA00024C08A30910509F18F8318860F5F1F4F8C
:100AB000B801CE0101960E94DE02882361F32981EC
:100AC0003A818D819E81BE01695F7F4F820F931FA6
:100AD0000E94A2081E830D83DECF1E821D826DE25E
:100AE00071E0C9010E94A208D6CFC980DA80C11482
:100AF000D10429F076010115110509F048C08D8156
:100B00009E81892B61F009811A8167E471E0C80137
:100B10000E949908892B09F070C00E9443038981C3
:100B20009A81009711F00E944A070E94D6006B013B
:100B30007C018091C1019091C201A091C301B0914B
:100B4000C401A7019601281B390B4A0B5B0BDA0184
:100B5000C901803D9740A105B10560F089E691E0AB
:100B60000E94D002C092C101D092C201E092C301A2
:100B7000F092C401A114B10409F4CACE0E947E010E
:100B8000882309F4C5CE0E940000C2CE740147013B
:100B90002FEF821A920AF7018081082E000C990B20
:100BA0000E944306892B91F7015011090C0D1D1D60
:100BB000F8018081082E000C990B0E944306892BB6
:100BC00031F00E151F0518F001501109F1CFA801E1
:100BD0004F5F5F4F4E195F095E834D83CE14DF0474
:100BE00020F4B701C6010E949008E981FA818D8145
:100BF0009E81E80FF91F108282CF60E571E0C80185
:100C00000E949908892B29F485E591E00E94D00281
:100C100086CF6AE571E0C8010E949908892B09F026
:100C20007ECF0E94210280E691E0F0CFE2EDF1E07C
:100C30001382128288EE93E0A0E0B0E08483958373
:100C4000A683B7838CE091E09183808385EC90E06C
:100C50009587848784EC90E09787868780EC90E086
:100C6000918B808B81EC90E0938B828B82EC90E077
:100C7000958B848B86EC90E0978B868B118E128EF1
:100C8000138E148E089591110C944C06803219F035
:100C900089508550C8F708959927882708952F927D
:100CA0003F924F925F926F927F928F929F92AF92FC
:100CB000BF92CF92DF92EF92FF920F931F93CF9349
:100CC000DF93CDB7DEB7CA1BDB0B0FB6F894DEBFE0
:100CD0000FBECDBF09942A88398848885F846E8406
:100CE0007D848C849B84AA84B984C884DF80EE8050
:100CF000FD800C811B81AA81B981CE0FD11D0FB659
:100D0000F894DEBF0FBECDBFED010895A1E21A2E0B
:100D1000AA1BBB1BFD010DC0AA1FBB1FEE1FFF1F9F
:100D2000A217B307E407F50720F0A21BB30BE40BEF
:100D3000F50B661F771F881F991F1A9469F7609536
:100D40007095809590959B01AC01BD01CF010895F0
:100D5000EE0FFF1F0590F491E02D09940F931F9360
:100D6000CF93DF938230910510F482E090E0E09120
:100D70007102F091720230E020E0B0E0A0E0309724
:100D800099F42115310509F44AC0281B390B243088
:100D90003105D8F58A819B816115710589F1FB01C7
:100DA00093838283FE0111C04081518102811381AE
:100DB00048175907E0F04817590799F4109761F060
:100DC00012960C93129713961C933296CF01DF91D3
:100DD000CF911F910F9108950093710210937202A9
:100DE000F4CF2115310551F04217530738F0A9010E
:100DF000DB019A01BD01DF01F801C1CFEF01F9CF9D
:100E00009093720280937102CDCFFE01E20FF31F27
:100E1000819391932250310939832883D7CF209130
:100E20006F0230917002232B41F420910401309124
:100E300005013093700220936F02209102013091DE
:100E400003012115310541F42DB73EB7409106014C
:100E500050910701241B350BE0916F02F091700255
:100E6000E217F307A0F42E1B3F0B2817390778F081
:100E7000AC014E5F5F4F2417350748F04E0F5F1FE0
:100E80005093700240936F02819391939FCFF0E053
:100E9000E0E09CCFCF93DF930097E9F0FC0132971D
:100EA00013821282A0917102B0917202ED0130E0C2
:100EB00020E01097A1F420813181820F931F2091AF
:100EC0006F02309170022817390709F061C0F09362
:100ED0007002E0936F02DF91CF910895EA01CE177F
:100EE000DF07E8F54A815B819E0141155105B1F7A5
:100EF000E901FB83EA8349915991C40FD51FEC178F
:100F0000FD0761F4808191810296840F951FE901AC
:100F100099838883828193819B838A83F0E0E0E0D8
:100F200012968D919C9113970097B9F52D913C9154
:100F30001197CD010296820F931F20916F0230917D
:100F400070022817390739F6309751F5109272025E
:100F500010927102B0937002A0936F02BCCFD38342
:100F6000C28340815181840F951FC817D90761F44E
:100F70004E5F5F4F88819981480F591F518340838D
:100F80008A819B81938382832115310509F0B0CF3B
:100F9000F0937202E09371029ECFFD01DC01C0CF9D
:100FA00013821282D7CFB0E0A0E0E9EDF7E00C9415
:100FB00051068C01009751F4CB010E94AE068C01C2
:100FC000C801CDB7DEB7E0E10C946D06FC01E60F79
:100FD000F71F9C0122503109E217F30708F49DC066
:100FE000D901CD91DC911197C617D70798F0C5307C
:100FF000D10530F3CE0104978617970708F3C61B77
:10100000D70B2297C193D1936D937C93CF010E940C
:101010004A07D6CF5B01AC1ABD0A4C018C0E9D1E4F
:10102000A0917102B0917202512C412CF12CE12C53
:10103000109731F580916F02909170028815990593
:1010400009F05CC04616570608F058C080910201AE
:1010500090910301009741F48DB79EB7409106012E
:1010600050910701841B950BE817F90708F055C04C
:10107000F0937002E0936F02F90171836083A0CF57
:101080008D919C91119712966C90129713967C906B
:101090001397A815B90559F56C0142E0C40ED11C8F
:1010A000CA14DB0420F1AC014A195B09DA0112967B
:1010B000159780F06282738251834083D9016D93CA
:1010C0007C93E114F10471F0D7011396FC93EE9335
:1010D000129776CF22968C0F9D1FF9019183808302
:1010E000F301EFCFF0937202E093710269CF4816DB
:1010F000590608F42C017D01D3019ACFCB010E943F
:10110000AE067C01009749F0AE01B8010E9490083C
:10111000C8010E944A07870153CF10E000E050CF7A
:10112000FB01DC0102C001900D9241505040D8F704
:101130000895FB01DC018D91019080190110D9F314
:10114000990B0895FB01DC0101900D920020E1F75D
:061150000895F894FFCFA2
:10115600FFFF00007302800000000000B401E200FF
:101166000F01010272011E01640102030405060754
:1011760008090A0B0C0E0F101112130D0A00434139
:101186004C2000415243414445525F434F494E2053
:101196007600434F494E0056455253494F4E3F0045
:1011A60050494E4700504F4E4700524543414C0070
:0C11B600524543414C204F4B0048420082
:00000001FF
